:100000000C945D000C9485000C9485000C94850084
:100010000C9485000C9485000C9485000C9485004C
:100020000C9485000C9485000C9485000C9485003C
:100030000C9485000C9485000C9485000C9485002C
:100040000C9477040C9485000C949B070C94DE07A9
:100050000C9485000C9485000C9485000C9485000C
:100060000C9485000C94850000000007000201003C
:100070000003040600000000000000000102040864
:100080001020408001020408102001020408102002
:10009000040404040404040402020202020203032E
:1000A0000303030300000000250028002B000000CC
:1000B0000000240027002A00940811241FBECFEF5F
:1000C000D8E0DEBFCDBF11E0A0E0B1E0EEE6FAE19E
:1000D00002C005900D92A63BB107D9F722E0A6EB2E
:1000E000B1E001C01D92AD36B207E1F710E0CAEBF6
:1000F000D0E004C02297FE010E94CD0CC83BD1077E
:10010000C9F70E944B050C94350D0C94000060E07B
:1001100083E00E94A90360E082E00E94A90361E0FD
:1001200082E00E94E20361E083E00E94E20360EA71
:100130007FE080E090E00E94EA0440E855E260E061
:1001400070E08FEB91E00E94190861E088E00E9466
:10015000A90360E08EE00E94A90361E08EE00E94A6
:10016000E20360E08FE00E94A90361E08FE00E945B
:10017000E20361E086E00E94A90361E087E00E945B
:10018000A90361E089E00E94A90361E08AE00E947E
:10019000A9036EE071E08FEB91E00C94F706CF922B
:1001A000DF92EF92FF927C0160E086E00E94E20322
:1001B00061E087E00E94E20360E089E00E94E203E0
:1001C00061E08AE00E94E203B7018BE00E9418041C
:1001D000B701882777FD8095982F0E94870B209183
:1001E00004013091050140910601509107010E94E0
:1001F0003B0C6B017C0120E030E0A9010E94500B18
:1002000087FD11C020E030E04FE753E4C701B6019D
:100210000E94370C181654F4C12CD12C8FE7E82E0D
:1002200083E4F82E03C0C12CD12C7601C701B6019E
:100230000E94540B85E0FF90EF90DF90CF900C94DC
:100240001804CF92DF92EF92FF927C0161E086E08A
:100250000E94E20360E087E00E94E20361E089E03F
:100260000E94E20360E08AE00E94E203B7018BE0B3
:100270000E941804B701882777FD8095982F0E9467
:10028000870B2091040130910501409106015091A6
:1002900007010E943B0C6B017C0120E030E0A901CA
:1002A0000E94500B87FD11C020E030E04FE753E47F
:1002B000C701B6010E94370C181654F4C12CD12C7A
:1002C0009FE7E92E93E4F92E03C0C12CD12C7601CF
:1002D000C701B6010E94540B85E0FF90EF90DF90BC
:1002E000CF900C94180460E08BE00E94E20360E081
:1002F00085E00C94E20361E08BE00E94E20361E0A0
:1003000085E00E94E20361E086E00E94E20361E092
:1003100087E00E94E20361E089E00E94E20361E07D
:100320008AE00C94E20360E089E00E94E20361E06D
:100330008AE00E94E20360E086E00E94E20361E05E
:1003400087E00E94E203609100017091010188271B
:1003500077FD8095982F0E94870B2DEC3CEC4CE4A8
:100360005FE30E943B0C0E94540B85E00E9418043E
:100370006091000170910101882777FD8095982F89
:100380000E94870B2DEC3CEC4CE45FE30E943B0C9D
:100390000E94540B8BE00C94180460E086E00E94ED
:1003A000E20361E087E00E94E20360E089E00E94EE
:1003B000E20361E08AE00E94E20360910201709131
:1003C0000301882777FD8095982F0E94870B2DECDD
:1003D0003CEC4CE45FE30E943B0C0E94540B8BE02E
:1003E0000E941804609102017091030185E00C9451
:1003F000180460E086E00E94E20361E087E00E946A
:10040000E20361E089E00E94E20360E08AE00E948A
:10041000E2036091020170910301882777FD8095C6
:10042000982F0E94870B2DEC3CEC4CE45FE30E947C
:100430003B0C0E94540B8BE00E9418046091020157
:1004400070910301882777FD8095982F0E94870B74
:100450002DEC3CEC4CE45FE30E943B0C0E94540BFF
:1004600085E00C94180460E089E00E94E20361E0FA
:100470008AE00E94E20361E086E00E94E20360E01D
:1004800087E00E94E20360910001709101018827DA
:1004900077FD8095982F0E94870B2DEC3CEC4CE467
:1004A0005FE30E943B0C0E94540B85E00E941804FD
:1004B0006091000170910101882777FD8095982F48
:1004C0000E94870B2DEC3CEC4CE45FE30E943B0C5C
:1004D0000E94540B8BE00C94180460E171E08FEBE8
:1004E00091E00E94F70667E171E08FEB91E00E94D6
:1004F000F7066EE171E08FEB91E00E94F70667E38B
:1005000071E08FEB91E00E94F70661E471E08FEB00
:1005100091E00E94F7066EE471E08FEB91E00E949B
:10052000F7066AE571E08FEB91E00E94F70664E65A
:1005300071E08FEB91E00E94F7066DE671E08FEBC2
:1005400091E00E94F7066DE771E08FEB91E00C946B
:10055000F706CF93DF93CDB7DEB72E970FB6F8949B
:10056000DEBF0FBECDBF8FEB91E00E9409071816CA
:1005700019060CF0BAC04CE26FEB71E0CE010896A0
:100580000E9418098FEB91E00E94320740E06FEB68
:1005900071E0CE0101960E9418096CE871E08FEBC2
:1005A00091E00E94F706BE01685F7F4F8FEB91E0FC
:1005B0000E94E50662E971E08FEB91E00E94F70688
:1005C000BE016F5F7F4F8FEB91E00E94E50667E908
:1005D00071E0CE0108960E941C06882371F080917C
:1005E0000201909103010E942101CE0101960E9417
:1005F0004C060E94EA040E94730169E971E0CE0191
:1006000008960E941C06882371F080910201909147
:1006100003010E94CF00CE0101960E944C060E9469
:10062000EA040E9473016CE971E0CE0108960E9411
:100630001C06882351F00E94CD01CE0101960E9434
:100640004C060E94EA040E9473016FE971E0CE013A
:1006500008960E941C06882351F00E949301CE0147
:1006600001960E944C060E94EA040E9473016BE905
:1006700071E0CE0108960E941C06882351F00E946A
:100680003302CE0101960E944C060E94EA040E94A9
:1006900073016EE971E0CE0108960E941C06882362
:1006A00051F00E94F901CE0101960E944C060E9471
:1006B000EA040E94730161EA71E0CE0108960E948B
:1006C0001C0681110E947B0163EA71E0CE0108964D
:1006D0000E941C0681110E946D02CE0101960E94AB
:1006E0005805CE0108960E9458052E960FB6F8942C
:1006F000DEBF0FBECDBFDF91CF9108950C94A9024C
:10070000833081F028F4813099F08230A1F008958F
:100710008630A9F08730B9F08430D1F48091800020
:100720008F7D03C0809180008F7780938000089533
:1007300084B58F7702C084B58F7D84BD0895809184
:10074000B0008F7703C08091B0008F7D8093B000A0
:100750000895CF93DF9390E0FC01E458FF4F24917C
:10076000FC01E057FF4F8491882349F190E0880F06
:10077000991FFC01E255FF4FA591B4918C559F4FF5
:10078000FC01C591D4919FB7611108C0F8948C9178
:10079000209582238C93888182230AC0623051F491
:1007A000F8948C91322F309583238C938881822BFF
:1007B000888304C0F8948C91822B8C939FBFDF9127
:1007C000CF9108950F931F93CF93DF931F92CDB7CF
:1007D000DEB7282F30E0F901E859FF4F8491F90185
:1007E000E458FF4F1491F901E057FF4F04910023A3
:1007F000C9F0882321F069830E9480036981E02F7A
:10080000F0E0EE0FFF1FEC55FF4FA591B4919FB79D
:10081000F8948C91611103C01095812301C0812B44
:100820008C939FBF0F90DF91CF911F910F910895EF
:100830001F93CF93DF93182FEB0161E00E94A90370
:10084000209711F460E004C0CF3FD10539F461E096
:10085000812FDF91CF911F910C94E203E12FF0E003
:10086000E859FF4FE491E330F9F048F4E130B9F092
:10087000E230A1F584B5806284BDC8BD34C0E630E5
:10088000E9F0E73019F1E43049F5809180008062A9
:1008900080938000D0938B00C0938A0024C084B5DD
:1008A000806884BDC7BD1FC0809180008068809330
:1008B0008000D0938900C093880015C08091B0005B
:1008C00080688093B000C093B3000DC08091B000E9
:1008D00080628093B000C093B40005C0C038D105D9
:1008E0000CF0B5CFAFCFDF91CF911F9108951F923C
:1008F0000F920FB60F9211242F933F938F939F93D4
:10090000AF93BF938091B7019091B801A091B901C5
:10091000B091BA013091B60126E6230F2D3728F0A9
:1009200029EE230F0196A11DB11D2093B6018093DE
:10093000B7019093B801A093B901B093BA01809127
:10094000BB019091BC01A091BD01B091BE01019687
:10095000A11DB11D8093BB019093BC01A093BD016B
:10096000B093BE01BF91AF919F918F913F912F9115
:100970000F900FBE0F901F9018952FB7F8946091AD
:10098000B7017091B8018091B9019091BA012FBF60
:1009900008959FB7F8944091BB015091BC016091BC
:1009A000BD017091BE0186B5A89B06C08F3F21F0A6
:1009B0004F5F5F4F6F4F7F4F9FBF2227342F452FD1
:1009C000562F280F311D411D511DA3E0B0E00E949C
:1009D000C00C0895CF92DF92EF92FF92CF93DF93F6
:1009E0006B017C010E94C904EB01C114D104E10434
:1009F000F10479F00E94C9046C1B7D0B683E7340C2
:100A0000A0F381E0C81AD108E108F108C851DC4F11
:100A1000ECCFDF91CF91FF90EF90DF90CF900895D2
:100A2000789484B5826084BD84B5816084BD85B5C9
:100A3000826085BD85B5816085BDEEE6F0E0808190
:100A400081608083E1E8F0E01082808182608083B1
:100A5000808181608083E0E8F0E080818160808334
:100A6000E1EBF0E0808184608083E0EBF0E0808166
:100A700081608083EAE7F0E0808184608083808108
:100A800082608083808181608083808180688083B0
:100A90001092C10008950E9410050E948700C5EDC4
:100AA000D7E00E947E032097E1F30E94D507F9CF9B
:100AB000FC01808191810C94D809CF93DF93EC01E4
:100AC00088819981009711F00E94D80919821882B3
:100AD0001D821C821B821A82DF91CF9108950F9391
:100AE0001F93CF93DF93EC018B016F5F7F4F888162
:100AF00099810E94670A009731F0998388831B834C
:100B00000A8381E001C080E0DF91CF911F910F91B6
:100B10000895CF93DF93EC0188819981892B29F087
:100B20008A819B818617970760F4CE010E946F052A
:100B3000882341F08C819D81892B19F4E881F9810A
:100B4000108281E0DF91CF910895EF92FF920F9391
:100B50001F93CF93DF93EC017B018A01BA010E94BE
:100B60008905811104C0CE010E945D0507C01D8367
:100B70000C83B701888199810E94190DCE01DF9104
:100B8000CF911F910F91FF90EF900895FC0111827A
:100B900010821382128215821482168261157105E9
:100BA00059F0FB0101900020E9F7AF0141505109D4
:100BB000461B570B0C94A5050895EF92FF920F93D7
:100BC0001F93CF93DF93EC017B010C811D81611595
:100BD000710511F480E016C04115510591F0040F24
:100BE000151FB8010E9489058823A1F32881398146
:100BF0008C819D81B701820F931F0E94190D1D8367
:100C00000C8381E0DF91CF911F910F91FF90EF90C6
:100C10000895CF93DF9300D0CDB7DEB769831A82F2
:100C200041E050E0BE016F5F7F4F0E94DD050F90F5
:100C30000F90DF91CF910895FC0124813581232B02
:100C400031F421E061157105A1F0FB0108C0FC0140
:100C5000808191816115710531F421E0FC01808171
:100C6000882339F005C00E94100D21E0892B09F07E
:100C700020E0822F0895FC012481358162177307DB
:100C800048F480819181009729F0FC01E60FF71F5D
:100C90008081089580E00895FC0180819181009712
:100CA00011F00C94E00C60E070E0CB010895CF925D
:100CB000DF92EF92FF920F931F93CF93DF936C011C
:100CC0007A01EB01E60EF71E00E010E0CE15DF051D
:100CD00061F06991D601ED91FC910190F081E02DD8
:100CE000C6010995080F191FF1CFC801DF91CF91F7
:100CF0001F910F91FF90EF90DF90CF9008956115B5
:100D0000710581F0DB010D900020E9F7AD01415044
:100D10005109461B570BDC01ED91FC910280F381D8
:100D2000E02D099480E090E00895AF92BF92CF92B9
:100D3000DF92EF92FF920F931F93CF93DF937C018B
:100D40006B01C0E0D0E000E010E0D60114968D9178
:100D50009C911597C817D90788F4D701ED91FC919C
:100D6000A080B180BE01C6010E943B06682FC7016A
:100D7000F5010995080F191F2196E7CFC801DF91EA
:100D8000CF911F910F91FF90EF90DF90CF90BF9088
:100D9000AF900895DC01ED91FC910190F081E02D80
:100DA00009940F931F93CF93DF93EC016DE00E94A2
:100DB000CA068C016AE0CE010E94CA06800F911F0C
:100DC000DF91CF911F910F9108950F931F93CF93B0
:100DD000DF93EC010E9495068C01CE010E94D106A2
:100DE000800F911FDF91CF911F910F9108950F9365
:100DF0001F93CF93DF93EC010E947F068C01CE01FD
:100E00000E94D106800F911FDF91CF911F910F910A
:100E10000895FC0124853585F901E05CFF4F808150
:100E20009181329620813181821B930B8F73992798
:100E30000895FC0184859585FC01E05CFF4F4081AD
:100E400051813296208131814217530741F0019040
:100E5000F081E02DE80FF91F808190E008958FEF79
:100E60009FEF0895FC0184859585FC01E05CFF4FB0
:100E7000408151813296208131814217530779F0A8
:100E8000A081B181A80FB91F8C91208131812F5F82
:100E90003F4F2F7333273183208390E008958FEFE6
:100EA0009FEF0895FC0181A1882329F0A489B589C9
:100EB0008C9186FFFBCF11A20895CF93DF93FC01A5
:100EC00026853785D901A05CBF4F8D919C911197E4
:100ED00001968F739927E901CE5BDF4F48815981D5
:100EE00084179507D9F30D90BC91A02DA20FB31FC5
:100EF0006C93A685B785A05CBF4F11969C938E938B
:100F0000A689B7892C9181E090E0078C02C0880FF8
:100F1000991F0A94E2F7282B2C9381E081A304887F
:100F2000F589E02D80818064808381E090E0DF910D
:100F3000CF91089508951F920F920FB60F9211242A
:100F40002F933F934F938F939F93EF93FF938091B2
:100F5000C00082FD1CC04091C60080916502909146
:100F6000660201968F73992720916702309168027B
:100F70008217930771F0E0916502F0916602EB5DD4
:100F8000FD4F4083909366028093650202C080917A
:100F9000C600FF91EF919F918F914F913F912F91BB
:100FA0000F900FBE0F901F9018958FEB91E00E944D
:100FB0000907892B11F00C949A0708951F920F923C
:100FC0000FB60F9211242F933F938F939F93EF931C
:100FD000FF9320912102309122028091230290916F
:100FE00024022817390731F48091C1008F7D809346
:100FF000C10014C0E0912302F0912402EF51FE4F92
:101000002081809123029091240201968F73992769
:1010100090932402809323022093C600FF91EF91C6
:101020009F918F913F912F910F900FBE0F901F9026
:101030001895CF92DF92EF92FF92CF93DF93EC015E
:101040006A017B01EC89FD8981E090E008A002C083
:10105000880F991F0A94E2F7808360E47BE48CE4B4
:1010600090E0A70196010E949E0C21503109410990
:1010700051095695479537952795211580E13807F1
:1010800098F0EC89FD89108260EA75E286E290E0D2
:10109000A70196010E949E0C215031094109510976
:1010A0005695479537952795E889F9893083EA89D8
:1010B000FB89208319A2EE89FF89408181E090E0BD
:1010C0009C010C8C02C0220F331F0A94E2F7422BC2
:1010D0004083EE89FF8940819C010D8C02C0220F64
:1010E000331F0A94E2F7422B4083EE89FF89408147
:1010F0009C010E8C02C0220F331F0A94E2F7422B90
:101100004083EE89FF8920810F8C02C0880F991FD0
:101110000A94E2F7809582238083DF91CF91FF903C
:10112000EF90DF90CF9008951092C2011092C1010C
:1011300088EE93E0A0E0B0E08093C3019093C401F7
:10114000A093C501B093C60189EA91E09093C001D4
:101150008093BF0185E292E09093CC018093CB0114
:1011600081EE91E09093CE018093CD0185EC90E0EB
:101170009093D0018093CF0184EC90E09093D201C2
:101180008093D10180EC90E09093D4018093D301BF
:1011900081EC90E09093D6018093D50182EC90E0B1
:1011A0009093D8018093D70186EC90E09093DA0178
:1011B0008093D90184E08093DB0183E08093DC019C
:1011C00087E08093DD0185E08093DE0181E08093FC
:1011D000DF0108950F931F93CF93DF93EC010E94DB
:1011E000BD04688779878A879B87E881F9810680B3
:1011F000F781E02DCE01099597FF15C00E94BD042F
:10120000088519852A853B85601B710B820B930B22
:101210000C811D812E813F81601771078207930722
:1012200020F38FEF9FEFDF91CF911F910F910895E2
:10123000EF92FF920F931F93CF93DF93EC018B01FB
:10124000E42E66E171E00E94C605C8010E94EA082A
:10125000FF24E7FCF09497FD0BC08E159F0541F02D
:10126000682FCE010E940906C8010E94EA08F3CF48
:10127000CE01DF91CF911F910F91FF90EF900895D4
:10128000CF93DF938230910510F482E090E0E091FB
:101290006B02F0916C0220E030E0A0E0B0E030970B
:1012A00039F14081518148175907B8F0481759075B
:1012B00071F482819381109729F013969C938E93F9
:1012C00012972CC090936C0280936B0227C021155B
:1012D000310531F04217530718F0A901DB0101C0B5
:1012E000EF019A01BD01DF010280F381E02DD7CF2C
:1012F00021153105F9F0281B390B2430310580F414
:101300008A819B816115710521F0FB0193838283A2
:1013100004C090936C0280936B02FE01329644C02D
:10132000FE01E20FF31F819391932250310939831B
:1013300028833AC02091690230916A02232B41F43C
:1013400020910A0130910B0130936A0220936902C7
:1013500020910801309109012115310541F42DB783
:101360003EB740910C0150910D01241B350BE091CB
:101370006902F0916A02E217F307A0F42E1B3F0BFB
:101380002817390778F0AC014E5F5F4F24173507F7
:1013900048F04E0F5F1F50936A0240936902819399
:1013A000919302C0E0E0F0E0CF01DF91CF9108958A
:1013B000CF93DF93009709F487C0FC013297138223
:1013C0001282C0916B02D0916C02209781F420812F
:1013D0003181280F391F8091690290916A0282172A
:1013E000930779F5F0936A02E09369026DC0DE011C
:1013F00020E030E0AE17BF0750F412964D915C919B
:1014000013979D014115510509F1DA01F3CFB3831B
:10141000A28340815181840F951F8A179B0771F425
:101420008D919C911197840F951F029691838083D3
:1014300012968D919C911397938382832115310588
:1014400029F4F0936C02E0936B023EC0D90113962D
:10145000FC93EE9312974D915D91A40FB51FEA177F
:10146000FB0779F480819181840F951F0296D90141
:1014700011969C938E938281938113969C938E9365
:101480001297E0E0F0E08A819B81009719F0FE015D
:10149000EC01F9CFCE01029628813981820F931F8A
:1014A0002091690230916A022817390769F4309750
:1014B00029F410926C0210926B0202C01382128205
:1014C000D0936A02C0936902DF91CF9108956F9221
:1014D0007F928F929F92AF92BF92CF92DF92EF92C4
:1014E000FF920F931F93CF93DF93EC01CB012097D3
:1014F00081F4DF91CF911F910F91FF90EF90DF90DA
:10150000CF90BF90AF909F908F907F906F900C94F2
:101510004009FE01E60FF71F9E0122503109E21734
:10152000F30708F4ACC0D9010D911C91119706176F
:101530001707B8F00530110508F49FC0A801445002
:1015400051094617570708F498C002501109061BA5
:10155000170B019311936D937C93CF010E94D809CF
:101560008CC05B01A01AB10A4E01800E911EA091A1
:101570006B02B0916C02612C712C60E070E01097EE
:1015800009F449C0A815B905C9F5ED90FC9011976B
:10159000670142E0C40ED11CCA14DB0478F1470194
:1015A0008A189B08640142E0C40ED11C1296BC90BC
:1015B00012971396AC91B5E0CB16D10440F0B282ED
:1015C000A38391828082D9018D939C9309C00E5F81
:1015D0001F4F0E0D1F1DF90111830083EB2DFA2FF4
:1015E0006115710531F0DB011396FC93EE931297B0
:1015F00044C0F0936C02E0936B023FC06D917C910C
:1016000011976616770608F43B01BD0112960D90FE
:10161000BC91A02DB4CF6091690270916A026815E7
:101620007905E9F468167906D0F4409108015091E3
:1016300009014115510541F44DB75EB760910C01A8
:1016400070910D01461B570BE417F507C0F4F0939A
:101650006A02E0936902F901918380830EC00E94BF
:1016600040097C01009759F0A801BE010E94070DB6
:10167000CE010E94D809C70104C0CE0102C080E09B
:1016800090E0DF91CF911F910F91FF90EF90DF904D
:10169000CF90BF90AF909F908F907F906F90089564
:1016A00071D008F481E0089504D06894B111D9C0D4
:1016B0000895BCD088F09F5790F0B92F9927B75163
:1016C000A0F0D1F0660F771F881F991F1AF0BA9506
:1016D000C9F712C0B13081F0C3D0B1E00895C0C0E5
:1016E000672F782F8827B85F39F0B93FCCF38695FC
:1016F00077956795B395D9F73EF490958095709559
:1017000061957F4F8F4F9F4F0895E89409C097FBD5
:101710003EF490958095709561957F4F8F4F9F4FC8
:101720009923A9F0F92F96E9BB279395F69587950C
:1017300077956795B795F111F8CFFAF4BB0F11F4CF
:1017400060FF1BC06F5F7F4F8F4F9F4F16C0882376
:1017500011F096E911C0772321F09EE8872F762FAC
:1017600005C0662371F096E8862F70E060E02AF0ED
:101770009A95660F771F881FDAF7880F96958795D9
:1017800097F90895990F0008550FAA0BE0E8FEEFAE
:1017900016161706E807F907C0F012161306E40735
:1017A000F50798F0621B730B840B950B39F40A262E
:1017B00061F0232B242B252B21F408950A2609F40C
:1017C000A140A6958FEF811D811D089597F99F6710
:1017D00080E870E060E008959FEF80EC08950024B9
:1017E0000A941616170618060906089500240A9486
:1017F00012161306140605060895092E0394000C0C
:1018000011F4882352F0BB0F40F4BF2B11F460FF9A
:1018100004C06F5F7F4F8F4F9F4F089557FD9058C3
:10182000440F551F59F05F3F71F04795880F97FBA4
:10183000991F61F09F3F79F087950895121613065E
:101840001406551FF2CF4695F1DF08C0161617068D
:101850001806991FF1CF86957105610508940895C2
:10186000E894BB2766277727CB0197F908958ADF8D
:1018700008F48FEF08950BD0C0CFB1DF28F0B6DFAA
:1018800018F0952309F0A2CFA7CF1124EACFC6DF25
:10189000A0F3959FD1F3950F50E0551F629FF00183
:1018A000729FBB27F00DB11D639FAA27F00DB11DDC
:1018B000AA1F649F6627B00DA11D661F829F222765
:1018C000B00DA11D621F739FB00DA11D621F839FEC
:1018D000A00D611D221F749F3327A00D611D231FC2
:1018E000849F600D211D822F762F6A2F11249F5710
:1018F00050408AF0E1F088234AF0EE0FFF1FBB1F33
:10190000661F771F881F91505040A9F79E3F5105D1
:1019100070F05CCFA6CF5F3FECF3983EDCF386958A
:1019200077956795B795F795E7959F5FC1F7FE2B7C
:10193000880F911D9695879597F90895A1E21A2E23
:10194000AA1BBB1BFD010DC0AA1FBB1FEE1FFF1F63
:10195000A217B307E407F50720F0A21BB30BE40BB3
:10196000F50B661F771F881F991F1A9469F76095FA
:101970007095809590959B01AC01BD01CF010895B4
:101980000E94D10CA59F900DB49F900DA49F800D37
:10199000911D11240895EE0FFF1F0590F491E02D85
:1019A0000994A29FB001B39FC001A39F700D811D38
:1019B0001124911DB29F700D811D1124911D089558
:1019C0001F93FC0199278827BC01E89411911032DC
:1019D000E9F3193010F01E30C8F31B3251F01D32FC
:1019E00049F4689406C00E94200D610F711D811D8D
:1019F000911D119110531A30B0F33EF490958095DB
:101A0000709561957F4F8F4F9F4F1F910895FB01F8
:101A1000DC0102C001900D9241505040D8F708956A
:101A2000FB01DC018D91019080190110D9F3990B14
:101A30000895FB01DC0101900D920020E1F708956B
:101A4000592F482F372F262F660F771F881F991F72
:101A5000660F771F881F991F620F731F841F951FC2
:0E1A6000660F771F881F991F0895F894FFCF17
:101A6E00B100D4000000803F00006D0280003F00F6
:101A7E0048454C503A0A0055736167653A005B6DF4
:101A8E006F64655D2C5B647572696174696F6E203D
:101A9E00696E206D735D00436F6D6D616E64733A98
:101AAE000046203D20666F7277617264730042209B
:101ABE003D20726576657273650052203D20726915
:101ACE00676874004C203D206C656674005352208C
:101ADE003D207370696E20726967687400534C20E4
:101AEE003D207370696E206C656674006D6F646561
:101AFE003A0074696D650042004600534C00535223
:101B0E000051004800000000005D0757060907322B
:061B1E0007190752070041
:00000001FF
