:100000000C9435000C945D000C945D000C945D0024
:100010000C945D000C945D000C945D000C945D00EC
:100020000C945D000C945D000C945D000C945D00DC
:100030000C945D000C945D000C945D000C945D00CC
:100040000C9498000C945D000C94FF010C944202F7
:100050000C945D000C945D000C945D000C945D00AC
:100060000C945D000C945D00F80211241FBECFEFCC
:10007000D8E0DEBFCDBF11E0A0E0B1E0E4E7F7E0FB
:1000800002C005900D92A231B107D9F721E0A2E19B
:10009000B1E001C01D92A53CB207E1F710E0CAE64D
:1000A000D0E004C02297FE010E94A503C836D10704
:1000B000C9F70E9460010C94B8030C94000040E062
:1000C00052EC61E070E08BE191E00C947D0280E104
:1000D0000E947B00E0911B01F0911C010190F081D6
:1000E000E02D682F8BE191E009956FE070E080E0F2
:1000F00090E00C94FF008E3008F08E5087702091B5
:10010000000190E4299F90011124822B80937C00B0
:1001100080917A00806480937A0080917A0086FDD5
:10012000FCCF809178002091790090E0922B089587
:100130001F920F920FB60F9211242F933F938F931C
:100140009F93AF93BF938091130190911401A0915D
:100150001501B09116013091120126E6230F2D37BB
:1001600028F029EE230F0196A11DB11D2093120145
:100170008093130190931401A0931501B09316017D
:100180008091170190911801A0911901B0911A0165
:100190000196A11DB11D8093170190931801A093A2
:1001A0001901B0931A01BF91AF919F918F913F9127
:1001B0002F910F900FBE0F901F9018959FB7F89436
:1001C00040911701509118016091190170911A0125
:1001D00086B5A89B06C08F3F21F04F5F5F4F6F4FE2
:1001E0007F4F9FBF2227342F452F562F280F311DB9
:1001F000411D511DA3E0B0E00E9498030895CF92E5
:10020000DF92EF92FF92CF93DF936B017C010E940C
:10021000DE00EB01C114D104E104F10479F00E9485
:10022000DE006C1B7D0B683E7340A0F381E0C81AB2
:10023000D108E108F108C851DC4FECCFDF91CF9134
:10024000FF90EF90DF90CF900895789484B582600E
:1002500084BD84B5816084BD85B5826085BD85B56A
:10026000816085BDEEE6F0E0808181608083E1E819
:10027000F0E0108280818260808380818160808351
:10028000E0E8F0E0808181608083E1EBF0E0808154
:1002900084608083E0EBF0E0808181608083EAE726
:1002A000F0E08081846080838081826080838081AF
:1002B000816080838081806880831092C10008956E
:1002C0000E9425010E945F00C9E3D2E00E946700FE
:1002D0002097E1F30E943902F9CFFC01248535858E
:1002E000F901E05CFF4F808191813296208131815C
:1002F000821B930B8F7399270895FC018485958544
:10030000FC01E05CFF4F40815181329620813181B8
:100310004217530741F00190F081E02DE80FF91FDB
:10032000808190E008958FEF9FEF0895FC01848510
:100330009585FC01E05CFF4F408151813296208120
:1003400031814217530779F0A081B181A80FB91FFD
:100350008C91208131812F5F3F4F2F733327318361
:10036000208390E008958FEF9FEF0895FC0181A115
:10037000882329F0A489B5898C9186FFFBCF11A22F
:100380000895CF93DF93FC0126853785D901A05CC2
:10039000BF4F8D919C91119701968F739927E90119
:1003A000CE5BDF4F4881598184179507D9F30D90B3
:1003B000BC91A02DA20FB31F6C93A685B785A05C3E
:1003C000BF4F11969C938E93A689B7892C9181E09B
:1003D00090E0078C02C0880F991F0A94E2F7282B3F
:1003E0002C9381E081A30488F589E02D80818064CD
:1003F000808381E090E0DF91CF91089508951F926E
:100400000F920FB60F9211242F933F934F938F9318
:100410009F93EF93FF938091C00082FD1CC0409199
:10042000C6008091C1019091C20101968F739927F6
:100430002091C3013091C4018217930771F0E091BC
:10044000C101F091C201EF57FE4F40839093C2016A
:100450008093C10102C08091C600FF91EF919F91EE
:100460008F914F913F912F910F900FBE0F901F9042
:1004700018958BE191E00E946D01892B11F00C948D
:10048000FE0108951F920F920FB60F9211242F9321
:100490003F938F939F93EF93FF9320917D01309132
:1004A0007E0180917F01909180012817390731F4F6
:1004B0008091C1008F7D8093C10014C0E0917F01C5
:1004C000F0918001E35CFE4F208180917F0190914B
:1004D000800101968F7399279093800180937F010B
:1004E0002093C600FF91EF919F918F913F912F91A3
:1004F0000F900FBE0F901F901895CF92DF92EF9242
:10050000FF92CF93DF93EC016A017B01EC89FD89B7
:1005100081E090E008A002C0880F991F0A94E2F7DA
:10052000808360E47BE48CE490E0A70196010E9464
:100530007603215031094109510956954795379560
:100540002795211580E1380798F0EC89FD89108204
:1005500060EA75E286E290E0A70196010E947603C8
:1005600021503109410951095695479537952795ED
:10057000E889F9893083EA89FB89208319A2EE8909
:10058000FF89408181E090E09C010C8C02C0220F29
:10059000331F0A94E2F7422B4083EE89FF894081A2
:1005A0009C010D8C02C0220F331F0A94E2F7422BEC
:1005B0004083EE89FF8940819C010E8C02C0220F8E
:1005C000331F0A94E2F7422B4083EE89FF89208192
:1005D0000F8C02C0880F991F0A94E2F7809582233E
:1005E0008083DF91CF91FF90EF90DF90CF900895BF
:1005F00010921E0110921D0188EE93E0A0E0B0E081
:1006000080931F0190932001A0932101B0932201B8
:1006100085E091E090931C0180931B0181E891E0BB
:1006200090932801809327018DE391E090932A0114
:100630008093290185EC90E090932C0180932B010D
:1006400084EC90E090932E0180932D0180EC90E05B
:100650009093300180932F0181EC90E090933201D0
:100660008093310182EC90E09093340180933301C8
:1006700086EC90E0909336018093350184E080937E
:10068000370183E08093380187E08093390185E06A
:1006900080933A0181E080933B010895CF92DF92ED
:1006A000EF92FF920F931F93CF93DF936C017A0128
:1006B000EB01E60EF71E00E010E0CE15DF0561F05D
:1006C0006991D601ED91FC910190F081E02DC60178
:1006D0000995080F191FF1CFC801DF91CF911F9124
:1006E0000F91FF90EF90DF90CF900895A1E21A2E26
:1006F000AA1BBB1BFD010DC0AA1FBB1FEE1FFF1FC6
:10070000A217B307E407F50720F0A21BB30BE40B15
:10071000F50B661F771F881F991F1A9469F760955C
:100720007095809590959B01AC01BD01CF01089516
:100730000E94A903A59F900DB49F900DA49F800DCA
:10074000911D11240895EE0FFF1F0590F491E02DE7
:100750000994A29FB001B39FC001A39F700D811D9A
:100760001124911DB29F700D811D1124911D0895BA
:04077000F894FFCF2B
:100774000100000000C1014E036D0196017D01B628
:02078400010072
:00000001FF
